:100000000C9434040C9451040C9451040C94510439
:100010000C9451040C9451040C9451040C9451040C
:100020000C9451040C9451040C9451040C94D3047A
:100030000C94D6040C9451040C9451040C94510467
:100040000C9451040C9451040C9451040C945104DC
:100050000C9451040C9451040C9451040C945104CC
:100060000C9451040C94510400F00FFF00F00FFFAA
:1000700000F00FFF00F00FFF8001FF1818180018A4
:10008000FF1800180018001800306C6C3000386041
:1000900018600000000000067C3078781CFC38FCFA
:1000A00078780000180060787C30FC3CF8FEFE3C5C
:1000B000CC781EE6F0C6C638FC78FC78FCCCCCC602
:1000C000C6CCFE78C07810003000E0001C0038007C
:1000D000E0300CE0700000000000000010000000A4
:1000E0000000001C18E076AA00F00FFF00F00FFFE0
:1000F00000F00FFF00F00FFFE007FF1818180018BE
:10010000FF1800180018001800786C6C7CC66C6032
:10011000303066300000000CC670CCCC3CC060CCE7
:10012000CCCC3030300030CCC67866666C6262660B
:10013000CC300C6660EEE66C66CC66CCB4CCCCC63B
:10014000C6CCC66060183800300060000C006C003F
:10015000600000603000000000000000300000007F
:10016000000000301830DC5500F00FFF00F00FFFEA
:1001700000F00FFF00F00FFFF81FC3183C18001825
:100180007E1800180018001800786CFEC0CC38C02B
:1001900060183C3000000018CE300C0C6CF8C00C1D
:1001A000CCCC303060FC180CDECC66C0666868C011
:1001B000CC300C6C60FEF6C666CC66E030CCCCC6AB
:1001C0006CCC8C6030186C00187860780C78607695
:1001D0006C700C6630CCF878DC76DC7C7CCCCCC6E1
:1001E000C6CCFC30183000AA00F00FFF00F00FFF63
:1001F00000F00FFF00F00FFFFE7FC31F3C181F1F12
:100200007EF8FFFFF8F8FFFF0030006C78187600EA
:100210006018FFFC00FC0030DE303838CC0CF818D9
:10022000787C0000C0000C18DECC7CC0667878C0FA
:10023000FC300C7860FEDEC67CCC7C7030CCCCD63A
:10024000387818601818C600000C7CCC7CCCF0CC38
:1002500076300C6C30FECCCC66CC76C030CCCCD6B4
:100260006CCC98E0001C005500000000F0F0F0F0AD
:100270000F0F0F0FFFFFFFFFFE7FC31F7E181F1F13
:100280003CF8FFFFF8F8FFFF003000FE0C30DC0008
:1002900060183C3000000060F630600CFE0CCC3082
:1002A000CC0C000060001830DEFC66C0666868CECA
:1002B000CC30CC6C62D6CEC660DC6C1C30CCCCFEB4
:1002C000383032600C180000007C66C0CCFC60CC7A
:1002D00066300C7830FECCCC66CC667830CCCCFE68
:1002E00038CC3030183000AA00000000F0F0F0F0F8
:1002F0000F0F0F0FFFFFFFFFF81FC3007E18181826
:100300003C000000181818180000006CF866CC00BB
:1003100030306630300030C0E630CCCC0CCCCC3045
:10032000CC18303030FC3000C0CC66666C62606641
:10033000CC30CC6666C6C66C607866CC30CC78EEC5
:100340006C3066600618000000CC66CCCCC0607CC7
:100350006630CC6C30D6CCCC7C7C600C34CC78FE57
:100360006C7C64301830005500000000F0F0F0F0B4
:100370000F0F0F0FFFFFFFFFE007FF00FF18181818
:1003800018000000181818180030006C30C67600ED
:1003900018600000300030807CFCFC781E787830DB
:1003A000787030301800603078CCFC3CF8FEF03EBD
:1003B000CC7878E6FEC6C638F01CE67878FC30C605
:1003C000C678FE78027800000076DC787678F00C4B
:1003D000E678CCE678C6CC78600CF0F81876306C0D
:1003E000C60CFC1C18E000AA00000000F0F0F0F0C1
:1003F0000F0F0F0FFFFFFFFF8001FF00FF181818FE
:100400001800000018181818000000000000000074
:10041000000000006000000000000000000000007C
:10042000000000600000000000000000000000006C
:1004300000000000000000000000000000000000BC
:1004400000000000000000FF00000000000000F8B5
:100450000000780000000000F01E00000000000016
:1004600000F8000000000055FF0FF000FF0FF00043
:10047000FF0FF000FF0FF0007FFE00E7E7E7FFE768
:1004800000E7FFE7FFE7FFE7FFCF9393CFFFC79FAB
:10049000E79FFFFFFFFFFFF983CF8787E303C703D2
:1004A0008787FFFFE7FF9F8783CF03C3070101C350
:1004B0003387E1190F3939C703870387033333398A
:1004C000393301873F87EFFFCFFF1FFFE3FFC7FFF0
:1004D0001FCFF31F8FFFFFFFFFFFFFFFEFFFFFFFA8
:1004E000FFFFFFE3E71F8955FF0FF000FF0FF0004C
:1004F000FF0FF000FF0FF0001FF800E7E7E7FFE74E
:1005000000E7FFE7FFE7FFE7FF8793938339939FB8
:10051000CFCF99CFFFFFFFF3398F3333C33F9F33E3
:100520003333CFCFCFFFCF3339879999939D9D999F
:1005300033CFF3999F111993993399334B3333394F
:100540003933399F9FE7C7FFCFFF9FFFF3FF93FF2B
:100550009FFFFF9FCFFFFFFFFFFFFFFFCFFFFFFFCB
:10056000FFFFFFCFE7CF23AAFF0FF000FF0FF00040
:10057000FF0FF000FF0FF00007E03CE7C3E7FFE7E5
:1005800081E7FFE7FFE7FFE7FF8793013F33C73FBF
:100590009FE7C3CFFFFFFFE731CFF3F393073FF3AD
:1005A0003333CFCF9F03E7F32133993F9997973F99
:1005B00033CFF3939F0109399933991FCF333339DF
:1005C0009333739FCFE793FFE7879F87F3879F89D5
:1005D000938FF399CF330787238923838333333969
:1005E000393303CFE7CFFF55FF0FF000FF0FF000C7
:1005F000FF0FF000FF0FF00001803CE0C3E7E0E0F8
:100600008107000007070000FFCFFF9387E789FFFE
:100610009FE70003FF03FFCF21CFC7C733F307E7EF
:100620008783FFFF3FFFF3E72133833F9987873FAE
:1006300003CFF3879F0121398333838FCF3333294E
:10064000C787E79FE7E739FFFFF3833383330F3330
:1006500089CFF393CF0133339933893FCF33332994
:100660009333671FFFE3FFAAFFFFFFFF0F0F0F0F7B
:10067000F0F0F0F00000000001803CE081E7E0E0F5
:10068000C307000007070000FFCFFF01F3CF23FFE0
:100690009FE7C3CFFFFFFF9F09CF9FF301F333CF46
:1006A00033F3FFFF9FFFE7CF2103993F99979731DE
:1006B00033CF33939D2931399F2393E3CF333301D4
:1006C000C7CFCD9FF3E7FFFFFF83993F33039F33EE
:1006D00099CFF387CF01333399339987CF333301E0
:1006E000C733CFCFE7CFFF55FFFFFFFF0F0F0F0F30
:1006F000F0F0F0F00000000007E03CFF81E7E7E7E2
:10070000C3FFFFFFE7E7E7E7FFFFFF93079933FF2B
:10071000CFCF99CFCFFFCF3F19CF3333F33333CF81
:1007200033E7CFCFCF03CFFF3F339999939D9F9965
:1007300033CF3399993939939F879933CF338711C1
:1007400093CF999FF9E7FFFFFF339933333F9F839F
:1007500099CF3393CF29333383839FF3CB338701EF
:1007600093839BCFE7CFFFAAFFFFFFFF0F0F0F0F72
:10077000F0F0F0F0000000001FF800FF00E7E7E7EE
:10078000E7FFFFFFE7E7E7E7FFCFFF93CF3989FFF9
:10079000E79FFFFFCFFFCF7F83030387E18787CFEB
:1007A000878FCFCFE7FF9FCF873303C307010FC1E9
:1007B00033878719013939C70FE319878703CF3981
:1007C00039870187FD87FFFFFF89238789870FF31B
:1007D00019873319873933879FF30F07E789CF9339
:1007E00039F303E3E71FFF55FFFFFFFF0F0F0F0F65
:1007F000F0F0F0F0000000007FFE00FF00E7E7E708
:10080000E7FFFFFFE7E7E7E7FFFFFFFFFFFFFFFF70
:10081000FFFFFFFF9FFFFFFFFFFFFFFFFFFFFFFF48
:10082000FFFFFF9FFFFFFFFFFFFFFFFFFFFFFFFF38
:10083000FFFFFFFFFFFFFFFFFFFFFFFFFFFFFFFFC8
:10084000FFFFFFFFFFFFFF00FFFFFFFFFFFFFF07AF
:10085000FFFF87FFFFFFFFFF0FE1FFFFFFFFFFFF2E
:10086000FF07FFFFFFFFFFAA11241FBECFEFD8E055
:10087000DEBFCDBF11E0A0E0B1E0E4E3FBE002C0E9
:1008800005900D92A430B107D9F724E0A4E0B1E0BF
:1008900001C01D92A03FB207E1F70E9406050C942B
:1008A00098050C9400008091050190910601833019
:1008B000910539F48AE490E0909389008093880050
:1008C00008958232910581F486E080936F0087E07D
:1008D00091E0909303018093020182E894E0909369
:1008E00001018093000108958730914050F08CEA17
:1008F00093E09093890080938800109206011092F3
:1009000005010895A0910201B09103012091040115
:10091000922F9695822F8795882787951092C600EB
:1009200028E02093C1009D01285D3F4FED91E80F25
:10093000F92FF11DE859FF4FE491E093C600A2178B
:10094000B307A1F78091C00086FFFCCF1092C600CC
:100950001092C1008091040191E0980F873019F046
:1009600090930401089510920401809105019091E3
:1009700006018A3E910569F484E080936F0083E567
:1009800094E0909301018093000181E08093EF0453
:10099000089580910201909103018896909303013C
:1009A0008093020108957894889518951F920F926C
:1009B0000FB60F9211242F933F934F935F936F9332
:1009C0007F938F939F93AF93BF93EF93FF93E091A8
:1009D0000001F091010109958091050190910601B6
:1009E00001969093060180930501FF91EF91BF91CD
:1009F000AF919F918F917F916F915F914F913F91B7
:100A00002F910F900FBE0F901F901895389A80E489
:100A10008CBD1092C5001092C400549A80EC809353
:100A2000C200519A219A5998299A82EC80938000A9
:100A300089E18093810087EF93E090938700809312
:100A400086008AE490E0909389008093880080E794
:100A500090E090938B0080938A0084E080936F00F5
:100A600010926E0081E083BF789490E080E0C0E057
:100A7000D8E22091EF042223E1F3CF5FCF3031F4AD
:100A800020910701205820930701C0E0409A0DB43F
:100A900007FEFDCF2EB5222329F12A3019F49F5FDE
:100AA00080E00BC09D9FF0011124E95FFE4FE80F2D
:100AB000F11D20838F5F883291F3993141F740EC2B
:100AC00053E06FE271E087E091E00E94760548E232
:100AD00050E060E270E087EC94E00E94880598E1C5
:100AE00080E0D5CF40981092EF04C3CF6817790704
:100AF00068F4FB01DC01E40FF51FA40FB51F02C071
:100B000002900E9241505040D8F708950C948F05F2
:100B1000DC0101C06D9341505040E0F70895FB01A6
:100B2000DC0102C001900D9241505040D8F7089569
:040B3000F894FFCF67
:040B3400530407015E
:00000001FF
